{
  "_format": "hh-sol-artifact-1",
  "contractName": "CasperFFG",
  "sourceName": "contracts/Casper.sol",
  "abi": [
    {
      "inputs": [],
      "stateMutability": "nonpayable",
      "type": "constructor"
    },
    {
      "anonymous": false,
      "inputs": [
        {
          "indexed": true,
          "internalType": "bytes32",
          "name": "hash",
          "type": "bytes32"
        },
        {
          "indexed": false,
          "internalType": "uint256",
          "name": "height",
          "type": "uint256"
        },
        {
          "indexed": false,
          "internalType": "uint256",
          "name": "dynasty",
          "type": "uint256"
        }
      ],
      "name": "CheckpointCreated",
      "type": "event"
    },
    {
      "anonymous": false,
      "inputs": [
        {
          "indexed": true,
          "internalType": "bytes32",
          "name": "hash",
          "type": "bytes32"
        },
        {
          "indexed": false,
          "internalType": "uint256",
          "name": "height",
          "type": "uint256"
        }
      ],
      "name": "CheckpointFinalized",
      "type": "event"
    },
    {
      "anonymous": false,
      "inputs": [
        {
          "indexed": true,
          "internalType": "bytes32",
          "name": "hash",
          "type": "bytes32"
        },
        {
          "indexed": false,
          "internalType": "uint256",
          "name": "height",
          "type": "uint256"
        }
      ],
      "name": "CheckpointJustified",
      "type": "event"
    },
    {
      "anonymous": false,
      "inputs": [
        {
          "indexed": true,
          "internalType": "address",
          "name": "validator",
          "type": "address"
        },
        {
          "indexed": false,
          "internalType": "uint256",
          "name": "deposit",
          "type": "uint256"
        },
        {
          "indexed": false,
          "internalType": "uint256",
          "name": "startDynasty",
          "type": "uint256"
        }
      ],
      "name": "ValidatorJoined",
      "type": "event"
    },
    {
      "anonymous": false,
      "inputs": [
        {
          "indexed": true,
          "internalType": "address",
          "name": "validator",
          "type": "address"
        },
        {
          "indexed": false,
          "internalType": "uint256",
          "name": "endDynasty",
          "type": "uint256"
        }
      ],
      "name": "ValidatorLeft",
      "type": "event"
    },
    {
      "anonymous": false,
      "inputs": [
        {
          "indexed": true,
          "internalType": "address",
          "name": "validator",
          "type": "address"
        },
        {
          "indexed": false,
          "internalType": "bytes32",
          "name": "sourceHash",
          "type": "bytes32"
        },
        {
          "indexed": false,
          "internalType": "bytes32",
          "name": "targetHash",
          "type": "bytes32"
        },
        {
          "indexed": false,
          "internalType": "uint256",
          "name": "sourceHeight",
          "type": "uint256"
        },
        {
          "indexed": false,
          "internalType": "uint256",
          "name": "targetHeight",
          "type": "uint256"
        }
      ],
      "name": "VoteSubmitted",
      "type": "event"
    },
    {
      "inputs": [],
      "name": "EPOCH_LENGTH",
      "outputs": [
        {
          "internalType": "uint256",
          "name": "",
          "type": "uint256"
        }
      ],
      "stateMutability": "view",
      "type": "function"
    },
    {
      "inputs": [],
      "name": "MIN_DEPOSIT",
      "outputs": [
        {
          "internalType": "uint256",
          "name": "",
          "type": "uint256"
        }
      ],
      "stateMutability": "view",
      "type": "function"
    },
    {
      "inputs": [],
      "name": "WITHDRAWAL_DELAY",
      "outputs": [
        {
          "internalType": "uint256",
          "name": "",
          "type": "uint256"
        }
      ],
      "stateMutability": "view",
      "type": "function"
    },
    {
      "inputs": [
        {
          "internalType": "uint256",
          "name": "",
          "type": "uint256"
        }
      ],
      "name": "amountStakedByDynasty",
      "outputs": [
        {
          "internalType": "int256",
          "name": "",
          "type": "int256"
        }
      ],
      "stateMutability": "view",
      "type": "function"
    },
    {
      "inputs": [
        {
          "internalType": "bytes32",
          "name": "",
          "type": "bytes32"
        },
        {
          "internalType": "bytes32",
          "name": "",
          "type": "bytes32"
        }
      ],
      "name": "checkpointLinkVotingStats",
      "outputs": [
        {
          "internalType": "uint256",
          "name": "",
          "type": "uint256"
        }
      ],
      "stateMutability": "view",
      "type": "function"
    },
    {
      "inputs": [
        {
          "internalType": "bytes32",
          "name": "",
          "type": "bytes32"
        }
      ],
      "name": "checkpoints",
      "outputs": [
        {
          "internalType": "bytes32",
          "name": "hash",
          "type": "bytes32"
        },
        {
          "internalType": "bytes32",
          "name": "parentHash",
          "type": "bytes32"
        },
        {
          "internalType": "bool",
          "name": "isJustified",
          "type": "bool"
        },
        {
          "internalType": "bool",
          "name": "isFinalized",
          "type": "bool"
        },
        {
          "internalType": "uint256",
          "name": "epoch",
          "type": "uint256"
        }
      ],
      "stateMutability": "view",
      "type": "function"
    },
    {
      "inputs": [],
      "name": "currentDynasty",
      "outputs": [
        {
          "internalType": "uint256",
          "name": "",
          "type": "uint256"
        }
      ],
      "stateMutability": "view",
      "type": "function"
    },
    {
      "inputs": [],
      "name": "currentEpoch",
      "outputs": [
        {
          "internalType": "uint256",
          "name": "",
          "type": "uint256"
        }
      ],
      "stateMutability": "view",
      "type": "function"
    },
    {
      "inputs": [],
      "name": "genesisBlockNumber",
      "outputs": [
        {
          "internalType": "uint256",
          "name": "",
          "type": "uint256"
        }
      ],
      "stateMutability": "view",
      "type": "function"
    },
    {
      "inputs": [],
      "name": "getFutureCheckpointBlockNumberPublic",
      "outputs": [
        {
          "internalType": "uint256",
          "name": "",
          "type": "uint256"
        }
      ],
      "stateMutability": "view",
      "type": "function"
    },
    {
      "inputs": [],
      "name": "isVotingPeriodOpen",
      "outputs": [
        {
          "internalType": "bool",
          "name": "",
          "type": "bool"
        }
      ],
      "stateMutability": "view",
      "type": "function"
    },
    {
      "inputs": [],
      "name": "joinValidatorSet",
      "outputs": [],
      "stateMutability": "payable",
      "type": "function"
    },
    {
      "inputs": [
        {
          "internalType": "address",
          "name": "",
          "type": "address"
        }
      ],
      "name": "lastVoteByVoter",
      "outputs": [
        {
          "internalType": "bytes32",
          "name": "sourceHash",
          "type": "bytes32"
        },
        {
          "internalType": "bytes32",
          "name": "targetHash",
          "type": "bytes32"
        },
        {
          "internalType": "uint256",
          "name": "sourceHeight",
          "type": "uint256"
        },
        {
          "internalType": "uint256",
          "name": "targetHeight",
          "type": "uint256"
        }
      ],
      "stateMutability": "view",
      "type": "function"
    },
    {
      "inputs": [],
      "name": "latestCheckpointHash",
      "outputs": [
        {
          "internalType": "bytes32",
          "name": "",
          "type": "bytes32"
        }
      ],
      "stateMutability": "view",
      "type": "function"
    },
    {
      "inputs": [],
      "name": "leaveValidatorSet",
      "outputs": [],
      "stateMutability": "nonpayable",
      "type": "function"
    },
    {
      "inputs": [],
      "name": "openVotingPeriodIfPossible",
      "outputs": [],
      "stateMutability": "nonpayable",
      "type": "function"
    },
    {
      "inputs": [
        {
          "internalType": "bytes32",
          "name": "_sourceHash",
          "type": "bytes32"
        },
        {
          "internalType": "bytes32",
          "name": "_targetHash",
          "type": "bytes32"
        },
        {
          "internalType": "uint256",
          "name": "_sourceHeight",
          "type": "uint256"
        },
        {
          "internalType": "uint256",
          "name": "_targetHeight",
          "type": "uint256"
        }
      ],
      "name": "submitVote",
      "outputs": [],
      "stateMutability": "nonpayable",
      "type": "function"
    },
    {
      "inputs": [
        {
          "internalType": "address",
          "name": "",
          "type": "address"
        }
      ],
      "name": "validators",
      "outputs": [
        {
          "internalType": "uint256",
          "name": "deposit",
          "type": "uint256"
        },
        {
          "internalType": "uint256",
          "name": "startDynasty",
          "type": "uint256"
        },
        {
          "internalType": "uint256",
          "name": "endDynasty",
          "type": "uint256"
        }
      ],
      "stateMutability": "view",
      "type": "function"
    },
    {
      "inputs": [
        {
          "internalType": "uint256",
          "name": "",
          "type": "uint256"
        },
        {
          "internalType": "address",
          "name": "",
          "type": "address"
        }
      ],
      "name": "votesAtHeightByVoter",
      "outputs": [
        {
          "internalType": "bool",
          "name": "",
          "type": "bool"
        }
      ],
      "stateMutability": "view",
      "type": "function"
    },
    {
      "inputs": [],
      "name": "withdrawAfterDelay",
      "outputs": [],
      "stateMutability": "nonpayable",
      "type": "function"
    },
    {
      "inputs": [
        {
          "internalType": "address",
          "name": "",
          "type": "address"
        }
      ],
      "name": "withdrawals",
      "outputs": [
        {
          "internalType": "uint256",
          "name": "amount",
          "type": "uint256"
        },
        {
          "internalType": "uint256",
          "name": "allowedFromBlockNumber",
          "type": "uint256"
        }
      ],
      "stateMutability": "view",
      "type": "function"
    }
  ],
  "bytecode": "0x608060405234801561001057600080fd5b506000801b600781905550600060088190555060006009819055506000600a60006101000a81548160ff02191690831515021790555043600b819055506000600b5460405160200161006291906101ac565b60405160208183030381529060405280519060200120905061009181600754600180600061009760201b60201c565b506101ff565b6040518060a001604052808681526020018581526020018415158152602001831515815260200182815250600080878152602001908152602001600020600082015181600001556020820151816001015560408201518160020160006101000a81548160ff02191690831515021790555060608201518160020160016101000a81548160ff0219169083151502179055506080820151816003015590505084600781905550847f62eb6451ad0b0d5a5dda2405ccf5d0c60852cf0f9b20a8ad9ca2b66c08bceb7b6009546008546040516101729291906101d6565b60405180910390a25050505050565b6000819050919050565b6000819050919050565b6101a66101a182610181565b61018b565b82525050565b60006101b88284610195565b60208201915081905092915050565b6101d081610181565b82525050565b60006040820190506101eb60008301856101c7565b6101f860208301846101c7565b9392505050565b6127158061020e6000396000f3fe60806040526004361061012a5760003560e01c806399ce77bd116100ab578063cd2a87661161006f578063cd2a8766146103b5578063dc47e97c146103cc578063e1e158a5146103f7578063eb5e91ff14610422578063f2043b2414610463578063fa52c7d8146104a05761012a565b806399ce77bd146102ef578063ac4746ab146102f9578063b34eb18214610324578063b5e42c911461034f578063bf89bcc71461038c5761012a565b80636de12899116100f25780636de12899146101de578063766718081461021b5780637846c80d146102465780637a9262a2146102865780638887b5f3146102c45761012a565b80630356fe3a1461012f5780630358ea7e1461015a5780630ebb172a146101715780634e37de171461019c578063687abcac146101b3575b600080fd5b34801561013b57600080fd5b506101446104df565b60405161015191906119a4565b60405180910390f35b34801561016657600080fd5b5061016f6104e5565b005b34801561017d57600080fd5b50610186610675565b60405161019391906119a4565b60405180910390f35b3480156101a857600080fd5b506101b161067c565b005b3480156101bf57600080fd5b506101c861080b565b6040516101d591906119a4565b60405180910390f35b3480156101ea57600080fd5b5061020560048036038101906102009190611a4e565b61081a565b6040516102129190611aa9565b60405180910390f35b34801561022757600080fd5b50610230610849565b60405161023d91906119a4565b60405180910390f35b34801561025257600080fd5b5061026d60048036038101906102689190611ac4565b61084f565b60405161027d9493929190611b0a565b60405180910390f35b34801561029257600080fd5b506102ad60048036038101906102a89190611ac4565b61087f565b6040516102bb929190611b4f565b60405180910390f35b3480156102d057600080fd5b506102d96108a3565b6040516102e691906119a4565b60405180910390f35b6102f76108a9565b005b34801561030557600080fd5b5061030e610b08565b60405161031b91906119a4565b60405180910390f35b34801561033057600080fd5b50610339610b0d565b6040516103469190611b78565b60405180910390f35b34801561035b57600080fd5b5061037660048036038101906103719190611b93565b610b13565b6040516103839190611bd9565b60405180910390f35b34801561039857600080fd5b506103b360048036038101906103ae9190611c20565b610b2b565b005b3480156103c157600080fd5b506103ca61109e565b005b3480156103d857600080fd5b506103e1611262565b6040516103ee9190611aa9565b60405180910390f35b34801561040357600080fd5b5061040c611275565b60405161041991906119a4565b60405180910390f35b34801561042e57600080fd5b5061044960048036038101906104449190611c87565b611280565b60405161045a959493929190611cb4565b60405180910390f35b34801561046f57600080fd5b5061048a60048036038101906104859190611d07565b6112d0565b60405161049791906119a4565b60405180910390f35b3480156104ac57600080fd5b506104c760048036038101906104c29190611ac4565b6112f5565b6040516104d693929190611d47565b60405180910390f35b600b5481565b6000600660003373ffffffffffffffffffffffffffffffffffffffff1673ffffffffffffffffffffffffffffffffffffffff168152602001908152602001600020604051806040016040529081600082015481526020016001820154815250509050600081600001511161058e576040517f08c379a000000000000000000000000000000000000000000000000000000000815260040161058590611ddb565b60405180910390fd5b43816020015111156105d5576040517f08c379a00000000000000000000000000000000000000000000000000000000081526004016105cc90611e47565b60405180910390fd5b3373ffffffffffffffffffffffffffffffffffffffff166108fc82600001519081150290604051600060405180830381858888f1935050505015801561061f573d6000803e3d6000fd5b50600660003373ffffffffffffffffffffffffffffffffffffffff1673ffffffffffffffffffffffffffffffffffffffff1681526020019081526020016000206000808201600090556001820160009055505050565b6201518081565b6000600b544361068c9190611e96565b90506064600160095461069f9190611eca565b6106a99190611efe565b8110156106eb576040517f08c379a00000000000000000000000000000000000000000000000000000000081526004016106e290611fb2565b60405180910390fd5b600a60009054906101000a900460ff161561073b576040517f08c379a00000000000000000000000000000000000000000000000000000000081526004016107329061201e565b60405180910390fd5b600260085410156107ec57600061075061131f565b604051602001610760919061205f565b6040516020818303038152906040528051906020012090506000600754905061079b828260008060016009546107969190611eca565b61134e565b600960008154809291906107ae9061207a565b91905055506107bc82611438565b6000801b60008083815260200190815260200160002060010154146107e5576107e4816114b6565b5b5050610808565b6001600a60006101000a81548160ff0219169083151502179055505b50565b600061081561131f565b905090565b60026020528160005260406000206020528060005260406000206000915091509054906101000a900460ff1681565b60095481565b60036020528060005260406000206000915090508060000154908060010154908060020154908060030154905084565b60066020528060005260406000206000915090508060000154908060010154905082565b60085481565b662386f26fc100003410156108f3576040517f08c379a00000000000000000000000000000000000000000000000000000000081526004016108ea9061210e565b60405180910390fd5b6000600160003373ffffffffffffffffffffffffffffffffffffffff1673ffffffffffffffffffffffffffffffffffffffff1681526020019081526020016000206040518060600160405290816000820154815260200160018201548152602001600282015481525050905060008160000151148015610977575060008160200151145b8015610987575060008160400151145b6109c6576040517f08c379a00000000000000000000000000000000000000000000000000000000081526004016109bd9061217a565b60405180910390fd5b604051806060016040528034815260200160026008546109e69190611eca565b81526020017fffffffffffffffffffffffffffffffffffffffffffffffffffffffffffffffff815250600160003373ffffffffffffffffffffffffffffffffffffffff1673ffffffffffffffffffffffffffffffffffffffff16815260200190815260200160002060008201518160000155602082015181600101556040820151816002015590505034600560006002600854610a839190611eca565b81526020019081526020016000206000828254610aa0919061219a565b925050819055503373ffffffffffffffffffffffffffffffffffffffff167fd0019d5b96aad3e1ffea7c6807291a01bac9ec0abd33f9c825b0b5064f23f30d346002600854610aef9190611eca565b604051610afd929190611b4f565b60405180910390a250565b606481565b60075481565b60056020528060005260406000206000915090505481565b600a60009054906101000a900460ff16610b7a576040517f08c379a0000000000000000000000000000000000000000000000000000000008152600401610b719061222a565b60405180910390fd5b610b83336115b3565b610bc2576040517f08c379a0000000000000000000000000000000000000000000000000000000008152600401610bb990612296565b60405180910390fd5b808210610c04576040517f08c379a0000000000000000000000000000000000000000000000000000000008152600401610bfb90612328565b60405180910390fd5b6001600954610c139190611eca565b8114610c54576040517f08c379a0000000000000000000000000000000000000000000000000000000008152600401610c4b90612394565b60405180910390fd5b6007548414610c98576040517f08c379a0000000000000000000000000000000000000000000000000000000008152600401610c8f90612400565b60405180910390fd5b610ca061131f565b604051602001610cb0919061205f565b604051602081830303815290604052805190602001208314610d07576040517f08c379a0000000000000000000000000000000000000000000000000000000008152600401610cfe9061246c565b60405180910390fd5b60008085815260200190815260200160002060020160009054906101000a900460ff16610d69576040517f08c379a0000000000000000000000000000000000000000000000000000000008152600401610d60906124d8565b60405180910390fd5b60008085815260200190815260200160002060020160019054906101000a900460ff1615610dcc576040517f08c379a0000000000000000000000000000000000000000000000000000000008152600401610dc390612544565b60405180910390fd5b816000808681526020019081526020016000206003015414610e23576040517f08c379a0000000000000000000000000000000000000000000000000000000008152600401610e1a906125b0565b60405180910390fd5b6000610e2f338361165a565b90506000610e3e3385856116c2565b90506000610e4c8383611796565b90508015610e5c57505050611098565b60016002600086815260200190815260200160002060003373ffffffffffffffffffffffffffffffffffffffff1673ffffffffffffffffffffffffffffffffffffffff16815260200190815260200160002060006101000a81548160ff021916908315150217905550604051806080016040528088815260200187815260200186815260200185815250600360003373ffffffffffffffffffffffffffffffffffffffff1673ffffffffffffffffffffffffffffffffffffffff16815260200190815260200160002060008201518160000155602082015181600101556040820151816002015560608201518160030155905050600160003373ffffffffffffffffffffffffffffffffffffffff1673ffffffffffffffffffffffffffffffffffffffff168152602001908152602001600020600001546004600089815260200190815260200160002060008881526020019081526020016000206000828254610fc69190611eca565b92505081905550610fd5611876565b6004600089815260200190815260200160002060008881526020019081526020016000205410611040576110076118ab565b61101586886000808861134e565b600960008154809291906110289061207a565b919050555061103686611438565b61103f876114b6565b5b3373ffffffffffffffffffffffffffffffffffffffff167f2e6010893ba123a0060c92455c35cc232311ecc4be7366c28dfc841345e5e5ea8888888860405161108c9493929190611b0a565b60405180910390a25050505b50505050565b6110a7336118c8565b6110e6576040517f08c379a00000000000000000000000000000000000000000000000000000000081526004016110dd9061261c565b60405180910390fd5b6000600160003373ffffffffffffffffffffffffffffffffffffffff1673ffffffffffffffffffffffffffffffffffffffff1681526020019081526020016000209050604051806040016040528082600001548152602001620151804361114d9190611eca565b815250600660003373ffffffffffffffffffffffffffffffffffffffff1673ffffffffffffffffffffffffffffffffffffffff168152602001908152602001600020600082015181600001556020820151816001015590505080600001546005600060026008546111be9190611eca565b815260200190815260200160002060008282546111db919061263c565b925050819055506000816000018190555060026008546111fb9190611eca565b81600201819055503373ffffffffffffffffffffffffffffffffffffffff167f33ff7b2beda3cb99406d3401fd9e8d9001b93e74b845cf7346f6e7f70c703e73600260085461124a9190611eca565b60405161125791906119a4565b60405180910390a250565b600a60009054906101000a900460ff1681565b662386f26fc1000081565b60006020528060005260406000206000915090508060000154908060010154908060020160009054906101000a900460ff16908060020160019054906101000a900460ff16908060030154905085565b6004602052816000526040600020602052806000526040600020600091509150505481565b60016020528060005260406000206000915090508060000154908060010154908060020154905083565b6000600b54606460016009546113359190611eca565b61133f9190611efe565b6113499190611eca565b905090565b6040518060a001604052808681526020018581526020018415158152602001831515815260200182815250600080878152602001908152602001600020600082015181600001556020820151816001015560408201518160020160006101000a81548160ff02191690831515021790555060608201518160020160016101000a81548160ff0219169083151502179055506080820151816003015590505084600781905550847f62eb6451ad0b0d5a5dda2405ccf5d0c60852cf0f9b20a8ad9ca2b66c08bceb7b600954600854604051611429929190611b4f565b60405180910390a25050505050565b600160008083815260200190815260200160002060020160006101000a81548160ff021916908315150217905550807f30060c3b80255ccd41c088eaadefab400879530be8d625e20f01e0be47f0c5e5600080848152602001908152602001600020600301546040516114ab91906119a4565b60405180910390a250565b600160008083815260200190815260200160002060020160016101000a81548160ff021916908315150217905550807f432cc4a99743a5adac154dc393a2ac8fc2d3fc6ac9f1bb31fa6a3427d4cae86c6000808481526020019081526020016000206003015460405161152991906119a4565b60405180910390a26005600060016008546115449190611eca565b81526020019081526020016000205460056000600854815260200190815260200160002054611573919061219a565b6005600060016008546115869190611eca565b815260200190815260200160002081905550600860008154809291906115ab9061207a565b919050555050565b600080600160008473ffffffffffffffffffffffffffffffffffffffff1673ffffffffffffffffffffffffffffffffffffffff16815260200190815260200160002060405180606001604052908160008201548152602001600182015481526020016002820154815250509050662386f26fc100008160000151101580156116415750600854816020015111155b801561165257506008548160400151115b915050919050565b60006002600083815260200190815260200160002060008473ffffffffffffffffffffffffffffffffffffffff1673ffffffffffffffffffffffffffffffffffffffff16815260200190815260200160002060009054906101000a900460ff16905092915050565b600080600360008673ffffffffffffffffffffffffffffffffffffffff1673ffffffffffffffffffffffffffffffffffffffff168152602001908152602001600020604051806080016040529081600082015481526020016001820154815260200160028201548152602001600382015481525050905060008482604001511180156117515750838260600151115b9050600085836040015110801561176b5750848360600151105b905081806117765750805b15611787576000935050505061178f565b600193505050505b9392505050565b600082806117a15750815b1561186b576000600160003373ffffffffffffffffffffffffffffffffffffffff1673ffffffffffffffffffffffffffffffffffffffff1681526020019081526020016000206000015490506000600160003373ffffffffffffffffffffffffffffffffffffffff1673ffffffffffffffffffffffffffffffffffffffff1681526020019081526020016000206000018190555080600560006008548152602001908152602001600020600082825461185a919061263c565b925050819055506001915050611870565b600090505b92915050565b6000600360026005600060085481526020019081526020016000205461189c9190611efe565b6118a691906126ae565b905090565b6000600a60006101000a81548160ff021916908315150217905550565b600080600160008473ffffffffffffffffffffffffffffffffffffffff1673ffffffffffffffffffffffffffffffffffffffff16815260200190815260200160002060405180606001604052908160008201548152602001600182015481526020016002820154815250509050662386f26fc10000816000015110158015611954575060008160200151115b801561198357507fffffffffffffffffffffffffffffffffffffffffffffffffffffffffffffffff8160400151145b915050919050565b6000819050919050565b61199e8161198b565b82525050565b60006020820190506119b96000830184611995565b92915050565b600080fd5b6119cd8161198b565b81146119d857600080fd5b50565b6000813590506119ea816119c4565b92915050565b600073ffffffffffffffffffffffffffffffffffffffff82169050919050565b6000611a1b826119f0565b9050919050565b611a2b81611a10565b8114611a3657600080fd5b50565b600081359050611a4881611a22565b92915050565b60008060408385031215611a6557611a646119bf565b5b6000611a73858286016119db565b9250506020611a8485828601611a39565b9150509250929050565b60008115159050919050565b611aa381611a8e565b82525050565b6000602082019050611abe6000830184611a9a565b92915050565b600060208284031215611ada57611ad96119bf565b5b6000611ae884828501611a39565b91505092915050565b6000819050919050565b611b0481611af1565b82525050565b6000608082019050611b1f6000830187611afb565b611b2c6020830186611afb565b611b396040830185611995565b611b466060830184611995565b95945050505050565b6000604082019050611b646000830185611995565b611b716020830184611995565b9392505050565b6000602082019050611b8d6000830184611afb565b92915050565b600060208284031215611ba957611ba86119bf565b5b6000611bb7848285016119db565b91505092915050565b6000819050919050565b611bd381611bc0565b82525050565b6000602082019050611bee6000830184611bca565b92915050565b611bfd81611af1565b8114611c0857600080fd5b50565b600081359050611c1a81611bf4565b92915050565b60008060008060808587031215611c3a57611c396119bf565b5b6000611c4887828801611c0b565b9450506020611c5987828801611c0b565b9350506040611c6a878288016119db565b9250506060611c7b878288016119db565b91505092959194509250565b600060208284031215611c9d57611c9c6119bf565b5b6000611cab84828501611c0b565b91505092915050565b600060a082019050611cc96000830188611afb565b611cd66020830187611afb565b611ce36040830186611a9a565b611cf06060830185611a9a565b611cfd6080830184611995565b9695505050505050565b60008060408385031215611d1e57611d1d6119bf565b5b6000611d2c85828601611c0b565b9250506020611d3d85828601611c0b565b9150509250929050565b6000606082019050611d5c6000830186611995565b611d696020830185611995565b611d766040830184611995565b949350505050565b600082825260208201905092915050565b7f4e6f7468696e6720746f20776974686472617700000000000000000000000000600082015250565b6000611dc5601383611d7e565b9150611dd082611d8f565b602082019050919050565b60006020820190508181036000830152611df481611db8565b9050919050565b7f5769746864726177616c206e6f7420616c6c6f77656420796574000000000000600082015250565b6000611e31601a83611d7e565b9150611e3c82611dfb565b602082019050919050565b60006020820190508181036000830152611e6081611e24565b9050919050565b7f4e487b7100000000000000000000000000000000000000000000000000000000600052601160045260246000fd5b6000611ea18261198b565b9150611eac8361198b565b9250828203905081811115611ec457611ec3611e67565b5b92915050565b6000611ed58261198b565b9150611ee08361198b565b9250828201905080821115611ef857611ef7611e67565b5b92915050565b6000611f098261198b565b9150611f148361198b565b9250828202611f228161198b565b91508282048414831517611f3957611f38611e67565b5b5092915050565b7f4e6f7420656e6f75676820626c6f636b732073696e6365206c6173742063686560008201527f636b706f696e7400000000000000000000000000000000000000000000000000602082015250565b6000611f9c602783611d7e565b9150611fa782611f40565b604082019050919050565b60006020820190508181036000830152611fcb81611f8f565b9050919050565b7f566f74696e6720706572696f6420616c7265616479206f70656e000000000000600082015250565b6000612008601a83611d7e565b915061201382611fd2565b602082019050919050565b6000602082019050818103600083015261203781611ffb565b9050919050565b6000819050919050565b6120596120548261198b565b61203e565b82525050565b600061206b8284612048565b60208201915081905092915050565b60006120858261198b565b91507fffffffffffffffffffffffffffffffffffffffffffffffffffffffffffffffff82036120b7576120b6611e67565b5b600182019050919050565b7f4465706f73697420746f6f206c6f770000000000000000000000000000000000600082015250565b60006120f8600f83611d7e565b9150612103826120c2565b602082019050919050565b60006020820190508181036000830152612127816120eb565b9050919050565b7f416c726561647920726567697374657265642076616c696461746f7200000000600082015250565b6000612164601c83611d7e565b915061216f8261212e565b602082019050919050565b6000602082019050818103600083015261219381612157565b9050919050565b60006121a582611bc0565b91506121b083611bc0565b9250828201905082811215600083121683821260008412151617156121d8576121d7611e67565b5b92915050565b7f566f74696e6720706572696f64206e6f74206f70656e00000000000000000000600082015250565b6000612214601683611d7e565b915061221f826121de565b602082019050919050565b6000602082019050818103600083015261224381612207565b9050919050565b7f4e6f7420616e206163746976652076616c696461746f72000000000000000000600082015250565b6000612280601783611d7e565b915061228b8261224a565b602082019050919050565b600060208201905081810360008301526122af81612273565b9050919050565b7f496e76616c696420736f7572636520616e64207461726765742068656967687460008201527f7300000000000000000000000000000000000000000000000000000000000000602082015250565b6000612312602183611d7e565b915061231d826122b6565b604082019050919050565b6000602082019050818103600083015261234181612305565b9050919050565b7f496e76616c696420746172676574206865696768740000000000000000000000600082015250565b600061237e601583611d7e565b915061238982612348565b602082019050919050565b600060208201905081810360008301526123ad81612371565b9050919050565b7f496e76616c696420736f7572636520636865636b706f696e7400000000000000600082015250565b60006123ea601983611d7e565b91506123f5826123b4565b602082019050919050565b60006020820190508181036000830152612419816123dd565b9050919050565b7f496e76616c69642074617267657420636865636b706f696e7400000000000000600082015250565b6000612456601983611d7e565b915061246182612420565b602082019050919050565b6000602082019050818103600083015261248581612449565b9050919050565b7f536f75726365206e6f74206a7573746966696564000000000000000000000000600082015250565b60006124c2601483611d7e565b91506124cd8261248c565b602082019050919050565b600060208201905081810360008301526124f1816124b5565b9050919050565b7f536f7572636520616c72656164792066696e616c697a65640000000000000000600082015250565b600061252e601883611d7e565b9150612539826124f8565b602082019050919050565b6000602082019050818103600083015261255d81612521565b9050919050565b7f496e76616c696420736f75726365206865696768740000000000000000000000600082015250565b600061259a601583611d7e565b91506125a582612564565b602082019050919050565b600060208201905081810360008301526125c98161258d565b9050919050565b7f4e6f7420612076616c696461746f720000000000000000000000000000000000600082015250565b6000612606600f83611d7e565b9150612611826125d0565b602082019050919050565b60006020820190508181036000830152612635816125f9565b9050919050565b600061264782611bc0565b915061265283611bc0565b925082820390508181126000841216828213600085121516171561267957612678611e67565b5b92915050565b7f4e487b7100000000000000000000000000000000000000000000000000000000600052601260045260246000fd5b60006126b98261198b565b91506126c48361198b565b9250826126d4576126d361267f565b5b82820490509291505056fea2646970667358221220cb22b048e6f51ce5a45563964aa9d4297118af948f8ab5a086aef82e3ad5d21a64736f6c634300081c0033",
  "linkReferences": {},
  "deployedLinkReferences": {}
}